:020000040800F2
:1000000030050020C9000008A90E0008EB0D00080B
:1000100000000000000000000000000000000000E0
:100020000000000000000000000000001D0F00089C
:100030000000000000000000F10E00081F0F000883
:10004000DB00000800000000DB000008DB00000807
:10005000DB000008DB000008DB000008DB00000814
:1000600000000000DB000008DB000008DB000008E7
:10007000DB000008DB000008DB00000800000000D7
:10008000DB000008DB00000800000000DB000008C7
:10009000DB000008DB000008DB000008DB000008D4
:1000A000DB000008DB000008DB00000895130008F7
:1000B000DB0000080348854600F03CF80048004794
:1000C0009517000830050020044880470448004781
:1000D000FEE7FEE7FEE7FEE7FEE7FEE7810F00082A
:1000E000B500000830B50B4601460020202201244F
:1000F00009E00D46D5409D4205D31D469540491B5C
:100100002546954040191546521E002DF1DC30BDA4
:10011000D2B201E00270401C491EFBD2704700229F
:10012000F6E710B513460A4604461946FFF7F0FFF6
:10013000204610BD064C0125064E05E0E36807CCBD
:100140002B430C3C98471034B442F7D3FFF7B6FF6B
:10015000D41C0008F41C000870B5002401462031AE
:100160004A78022A03D004218163012416E0026840
:1001700013680E25AB431360026813685B085B00CD
:1001800013600122056C1346AB40C56B6B604A706F
:1001900000220A70416B002900D08847204670BDBC
:1001A00031B500F0BFF8009C0546601C00D0641C0F
:1001B00000F0B8F8401BA042FAD338BDF8B50023D0
:1001C0008DE001249C40A44622407DD04C68022C46
:1001D00001D0122C0CD1DC08A40027183C6A5D0762
:1001E000ED0E0F26AE40B4430E69AE4026433E628C
:1001F00005685E000324B4400F79A543BF07BF0F15
:10020000B7402F4307604D68012D05D0022D03D064
:10021000112D01D0122D0ED18568CF68A543B740AE
:100220002F43876047686546AF430D79ED06ED0FB4
:100230009D403D434560C568A5438C68B4402C4350
:10024000C4604C68E40049D5284CA56901263543B3
:10025000A561A4699D0834400094254CAD002F1978
:10026000BC689D072E0F0F25B540AC430925ED0650
:10027000A84201D100250FE01E4DA84201D1012561
:100280000AE01D4DA84201D1022505E01B4DA84200
:1002900001D1032500E00525B5402543BD60184C7C
:1002A00025684E689543F60300D5154325606568BB
:1002B0004E689543B60300D515436560A5684E6842
:1002C0009543F60202D500E008E01543A560E56815
:1002D0004E689543B60200D51543E5605B1C0A687D
:1002E0001446DC4000D06CE7F8BD0000001002406E
:1002F000000001400004004800080048000C0048CD
:10030000000401400069084000D0012070474269A4
:100310004A4042617047002A01D081617047816282
:10032000704700000148006870470000640000202A
:1003300002480168491C0160704700006400002009
:1003400010B506480168102211430160002000F03A
:1003500007F800F017F8002010BD00000020024050
:1003600010B5044600F03AF97D21C900FFF7BAFE46
:1003700000F030FB00222146501E00F021F8002042
:1003800010BD000008B50848816901221143816150
:10039000816911400091C26901040A43C261C069C8
:1003A0000840009008BD000000100240C106C90EC0
:1003B00001208840014908607047000000E100E02A
:1003C00010B500F073FD10BDF8B505460068354C5A
:1003D000C00352D5E0690026C00007D4E1692004BB
:1003E0000143E161E1690140012600912E48016865
:1003F000C90510D40168821511430160FFF792FF0F
:10040000074604E0FFF78EFFC01B642824D8264867
:100410000068C005F6D5206A03273F02384020D087
:100420006968394081421CD0206A226AB8430121A0
:1004300009040A432262226A8A4322622062C007B8
:100440000FD0FFF76FFF009008E0FFF76BFF0099F8
:10045000411A1648814201D90320F8BD206A80075D
:10046000F3D5206A6968B84308432062002E04D09F
:10047000E169012000078143E1612878C00705D0C8
:10048000206BA968800880000843206328788006D4
:1004900005D5206B10218843E968084320630020BC
:1004A000F8BD0000001002400070004088130000FA
:1004B000F8B5054644480E460068C007C00FB04274
:1004C0000AD2414801684908490031430160006887
:1004D000C007C00FB0425CD128783C4C800705D5DE
:1004E0006068F0218843A968084360602878C007E5
:1004F0003FD06868012813D02168022813D08907EB
:10050000002946DA61688908890001436160FFF7C4
:1005100009FF6968074601290DD0022917D024E098
:1005200021688903ECE78901EAE7FFF7FBFEC11BBD
:100530002748814217D860680007800F0128F4D14E
:1005400017E0FFF7EFFEC11B214881420BD860681E
:100550000007800F0228F4D10BE0FFF7E3FEC11B78
:100560001B48814201D90320F8BD60680007800F55
:10057000F3D115480168C907C90FB1420BD9016809
:1005800049084900314301600068C007C00FB0420C
:1005900001D00120F8BD2878400706D56068072102
:1005A00009028843E9680843606000F02DF861683B
:1005B000084A0906090F515CC84007490860002035
:1005C000FFF7CEFE0020F8BD0020024000100240E0
:1005D00088130000A41C00080000002001480068E7
:1005E0007047000000000020044805490068496881
:1005F000044A4905490F515CC8407047000000207B
:1006000000100240B41C000810B512A30FCB88B034
:100610006C460FC413A30FCB0FC416494A680C20B5
:10062000134603401448042B0FD0082B0DD193021E
:100630001B0F6C46E45CC96A04AB0907090F595CDF
:10064000D20304D5FFF74EFD604308B010BD0B4840
:100650006043FAE702030405060708090A0B0C0DBC
:100660000E0F10100102030405060708090A0B0CFF
:100670000D0E0F100010024000127A0000093D001C
:10068000FEB504460078D04DC00747D06868000723
:10069000800F012807D068680007800F022809D161
:1006A0006868C00306D52868800337D560680028CD
:1006B0007ED033E0012062680004012A11D081005D
:1006C000002A01D0052A10D02A6882432A602868AF
:1006D000884328606068002814D0FFF723FE064690
:1006E0000CE0296801432960F4E72A680A432A607C
:1006F000F7E7FFF717FE801B64286FD82868800390
:10070000F7D50BE0FFF70EFE064604E0FFF70AFE02
:10071000801B6428F1D828688003F7D4207801264C
:10072000800700283BDA68680007800F07D06868F8
:100730000007800F022809D16868C00306D4286822
:10074000800715D5E068012832D111E0E068002863
:10075000286815D030432860FFF7E4FD074604E021
:10076000FFF7E0FDC01B0228C7D828688007F7D52F
:100770002868F82188432169C900084328600EE0F1
:10078000400840002860FFF7CDFD074604E0FFF772
:10079000C9FDC01B0228B0D828688007F7D420788C
:1007A000000724D5E0690028686A10D0304300E0D3
:1007B00008E16862FFF7B6FD074604E0FFF7B2FD07
:1007C000C01B022899D8686A8007F7D50FE0400857
:1007D00040006862FFF7A6FD074605E09DE0FFF7D1
:1007E000A1FDC01B022888D8686A8007F7D420784A
:1007F00004274007002860DA00200190E869C00063
:1008000008D4E969B8060143E961E96901400120BA
:10081000009101906D480168C90511D401688215E5
:1008200011430160FFF77EFD009005E0FFF77AFDC0
:100830000099401A642870D864480068C005F5D54E
:10084000A06801280AD0002801D0052810D0286A05
:10085000400840002862286AB84301E0286A304313
:100860002862A068002812D0FFF75CFD00900AE023
:10087000286A38432862F1E7FFF754FD0099411ACE
:100880005348814249D8286A8007F5D50DE0FFF723
:1008900049FD009006E0FFF745FD0099411A4C48DC
:1008A00081423AD8286A8007F5D40198002804D0FC
:1008B000E969012000078143E9612078C00635D548
:1008C000606901280CD0401D686B23D038436863F1
:1008D000686B400840006863FFF724FD064622E08D
:1008E000686B38436863686B30436863FFF71AFDD1
:1008F000064604E0FFF716FD801B02285BD8686BF4
:100900008007F7D5686BF8218843A169C9000843BF
:1009100068630BE0B8436863F4E74CE0FFF702FD5F
:10092000801B022847D8686B8007F7D4206A00280C
:1009300046D069680907890F022943D00126360687
:100940000228286805D0B0432860FFF7EBFC044676
:1009500033E0B0432860FFF7E5FC074604E0FFF70B
:10096000E1FCC01B022826D828688001F7D4E86A79
:10097000E16A000900010843E862616AA06A08436D
:1009800069683D2212049143084368602868304337
:100990002860FFF7C7FC044604E0FFF7C3FC001B18
:1009A000022808D828688001F7D509E0FFF7BAFCCB
:1009B000001B022801D90320FEBD28688001F5D460
:1009C0000020FEBD0120FEBD00100240007000406E
:1009D00088130000094910B5401E884201D9012042
:1009E00010BD074C60610321081F00F05FFA002072
:1009F000A06107202061002010BD0000FFFFFF0064
:100A000000E000E070470000F8B5044600680168A7
:100A1000FF22213291430160206881684908490022
:100A200081602168886822464606204600234030BF
:100A30000F256032002E1BDA8E684027BE438E6081
:100A4000616E00290AD00C484863606EFFF784FB92
:100A500000280BD0606E416B884707E04383206815
:100A60000562202090722046FFF7CCFF0020F8BDE1
:100A700043830D62F5E70000CD10000870470000C9
:100A8000F8B503680446D96918680D072D0F07D11A
:100A90008A0605D5820603D5204600F041FBF8BD45
:100AA0009A68002D64D0D507ED0FFF262136064049
:100AB0002E435DD0CE0706D0C60504D501261E62A2
:100AC000E36E3343E3668F0702230426002F06DA22
:100AD000D70704D027683B62E76E3743E7664F07C6
:100AE00006D5D20704D022681662E26E1A43E26687
:100AF0000A0709D5202202402A4305D0236808228C
:100B00001A62E36E1343E366E26E002AC7D08906D9
:100B100004D5800602D5204600F002FBE06E0007F7
:100B200003D42068806840061CD5204600F0DCFA1B
:100B300020688168490611D581684022914381600F
:100B4000606E00280AD012494163606EFFF704FB13
:100B50000028A4D0606E416B8847F8BD2046FFF79F
:100B60008DFFF8BD2046FFF789FF0020E066F8BD45
:100B70000A0605D5020603D5204600F0A7FBF8BDFE
:100B80004906FCD54006FAD5204600F0BCFAF8BD6F
:100B9000B910000870B5040005D025466035687AA4
:100BA000002802D006E0012070BD002028722046F7
:100BB00000F026F82420687220680168490849007E
:100BC0000160204600F0EAFA0128EDD0606A0028B2
:100BD00002D0204600F002FA206841680122D202C9
:100BE00091434160206881680822914381602068B8
:100BF0000168012211430160204600F054FA70BDE3
:100C000010B586B0044614216846FFF788FA1649E5
:100C10002068884226D115488269012189030A4348
:100C2000826182690A4005924269C9000A434261B1
:100C30004069084005900320400200900220019086
:100C40000121032003900291049109206946C00606
:100C5000FFF7B4FA002211461B20FFF7B1FB1B205F
:100C6000FFF7A4FB06B010BD0038014000100240A1
:100C700070B5034660339C7A202C39D100290BD003
:100C8000002A09D0012584682D03AC4206D10669EB
:100C9000002E03D1CE0701D0012070BD1E7A012E97
:100CA00026D001261E724165014640310A834A83DF
:100CB000FF22AC4204D10469002C07D10D4A05E0A3
:100CC000002C04D10469002C00D07F228A830021EB
:100CD000C16622229A72197201688A6832438A6058
:100CE00000680168FF22213211430160002070BDBD
:100CF000022070BDFF01000010B5074900680968B7
:100D0000884208D10548007800F062FE01220349BC
:100D10000148FFF7ADFF10BD68000020280000204B
:100D2000FFB5064604466036707A83B00D4620282B
:100D300058D1002D0CD00598002809D00120A168B9
:100D40000003814207D12069002804D1E80702D0BE
:100D5000012007B0F0BD307A012843D00120307265
:100D60000020E06621207072FFF7DCFA0190274630
:100D70004037059838820598788218E0788A401EB6
:100D8000788206980090002280212046019B00F086
:100D9000D0FA002818D10120A1680003814202D1B5
:100DA0002069002812D02168287808856D1C788A6F
:100DB0000028E3D106980090002240212046019BA4
:100DC00000F0B7FA002808D00320C2E7288821687D
:100DD000C005C00D0885AD1CE9E720207072002019
:100DE0003072B6E70220B4E77047FEE770B586B010
:100DF00014216846FFF793F91C4842690121490410
:100E00000A43426142690A400592426949010A4324
:100E1000426142690A400592426909110A434261EE
:100E2000406909260840F606059000222321304635
:100E3000FFF771FA232000240125009002946946EF
:100E4000019503943046FFF7B9F980206A4631C214
:100E500069460748FFF7B2F91020009001946946EF
:100E600002940448FFF7AAF906B070BD00100240D2
:100E7000001400480004004810B50A480849016001
:100E80004B21C901416000218160C1600161816124
:100E9000C1610C22016242614162FFF77BFE10BD1D
:100EA0000038014068000020704700008307FF22DF
:100EB000DB0E9A408907090E994000280BDA0007DB
:100EC000000F0838830808489B001818C36993432B
:100ED0000B43C3617047830804489B001B181868C4
:100EE000904308431860704700ED00E000E400E024
:100EF0007047000007498B68CA689A4208D00648C4
:100F0000824201D31738C860CA681078521CCA6080
:100F10007047000014000020EF000020704710B55B
:100F2000FFF706FA00F0D0FA10BD30B595B03021C9
:100F30006846FFF7F4F800240F940A200D940E94ED
:100F4000012500900C941294139410201194039591
:100F500004901094079508946846FFF791FB0720CA
:100F60000C900D940E9400210F940CA8FFF7A0FA9A
:100F700010A810951294FFF727FA15B030BD0000A5
:100F8000134801680122114301604168114A114070
:100F900041600168104A1140016001680122920419
:100FA0009143016041683F22120491434160C16A4C
:100FB00009090901C162016BFF22143291430163E7
:100FC000416B49084900416300218160704700007E
:100FD000001002400CB8FF08FFFFF6FE10B5818C30
:100FE000C90707D001684A6801235B049A43836AF2
:100FF0001A434A60818C890707D501684A68012332
:101000001B049A43C36A1A434A60818C490707D577
:1010100001684A6801239B049A43036B1A434A60A0
:10102000818C090707D501684A680123DB039A43CD
:10103000436B1A434A60818CC90607D502689168E0
:1010400001231B039943836B19439160818C8906AB
:1010500007D501688A6801235B039A43C36B1A436F
:101060008A60818C490612D503685A6801210905F6
:10107000046C8A4322435A60026C8A4207D1026898
:10108000516803235B059943436C19435160818C7C
:10109000090607D501684A680123DB04806C9A437E
:1010A00002434A6010BD0021C166202260304272B6
:1010B000827201720846704710B5406A00220146EC
:1010C00040314A834A82FFF7D9FC10BD10B5406A0F
:1010D00000225A210A5202680F21116220226A213D
:1010E0000A54FFF78FFC10BD01680A68FF23213303
:1010F0009A430A6001688A68520852008A60202177
:1011000060308172704710B501680A6840239A43C5
:101110000A60202269210A54FFF766FE002010BDF4
:1011200070B50246403203466033948B9D7A016865
:10113000222D05D08869082210438861022070BDE5
:10114000898C012685683603B54202D10569002DD8
:101150000BD02140446D651C45652170518B491EA3
:101160000904090C518307D015E0456D2140298001
:10117000416D891C4165F1E701680A68FF2421344B
:10118000A2430A6001688A68520852008A602021DE
:101190009972FFF7B1FD002070BD0000F8B504465C
:1011A0002369A268E5691A43636910202B43002173
:1011B00025681A432B680E463E4F3B4013432B6075
:1011C00023685A6803252D03AA43E5682A435A6019
:1011D000236AA26925681A43AB680B273F02BB4309
:1011E0001343AB60344A2568954210D1334A126BE1
:1011F0009207920F0ED0012A05D0022A05D0032AA9
:1012000009D1022007E0042005E0082003E02C4A71
:10121000954200D100200122E369D203934224D1F8
:1012200000280CD002280DD0042813D0082817D08D
:1012300001260A0912010807400F10432FE0FFF7AB
:10124000D3F909E061681F4A48088018FEF74AFF91
:1012500081B2EEE7FFF7D8F9616840004A08F4E789
:101260006168012248081204EFE7002808D002282C
:1012700009D004280BD0082814D001263046F8BD28
:10128000FFF7B2F905E061680F4A48080CE0FFF784
:10129000BBF961684A088018FEF724FF80B2216814
:1012A000C860EBE7616848088018FEF71BFF80B252
:1012B000E860E3E7F369FFFF0038014000100240F7
:1012C000004400400024F40000127A006921095C07
:1012D000212901D00220704702464032518A00295C
:1012E00012D0012381681B03994202D101690029B0
:1012F00015D0C16C4B1CC364006809780185508A05
:10130000401E50820020704701680A6880239A437B
:101310000A6000680168402211430160F2E7C16C75
:1013200003680988C905C90D1985C16C891CC16488
:10133000E5E7FFB581B017460E4604460A9D1DE05D
:10134000681C1BD0002D05D0FEF7ECFF0499401A55
:10135000A84213D920680168FF22A132914301609D
:1013600020688168490849008160202060346072EB
:10137000A07200202072032005B0F0BD2068C16972
:101380003046884304D00020B842D9D00020F3E78B
:101390000120F9E710B50248FFF772FB10BD00000D
:1013A0006800002001B50748FFF72EFB64230122E7
:1013B00069460448FFF7B4FC012203490148FFF7DE
:1013C00057FC08BD680000202800002030B4744697
:1013D000641E2578641CAB4200D21D46635D5B0031
:1013E000E31830BC184702E008C8121F08C1002AE1
:1013F000FAD170477047002001E001C1121F002A96
:10140000FBD1704710B51E480178012000F0D2F9D9
:101410001C480178022000F0CDF91B480178032018
:1014200000F0C8F919480178042000F0C3F9184801
:101430000168072000F0E0F916480168082000F074
:10144000DBF915480168092000F0D6F91348016856
:101450000A2000F0D1F912480168652000F0CCF9AB
:1014600010480168662000F0C7F90F48016867203E
:1014700000F0C2F90D480168682000F0BDF910BD08
:101480002A000020440000204500002046000020E3
:1014900040000020480000204C00002050000020A8
:1014A00054000020580000205C0000206000002054
:1014B00001780A02417811430A028178C078114309
:1014C000090208437047000070B5134C6079012889
:1014D00010D1E07901280DD120897D21C9008842F1
:1014E00016D300252581A069002803D0012802D940
:1014F000401EA06170BDA570A178012000F05AF9CE
:1015000006480068A061E57025716571E57170BDE0
:10151000401C208170BD0000280000201000002029
:10152000F1B586B03E4906980D18E87801263D4C85
:101530000300FFF74BFF0F091B1F22292B2D1D6DE9
:101540001D1D1D1D1D701D00364861780078002985
:1015500006D0012100F034FA2070C1B2002010E062
:10156000002100F02DFA20706670F6E700F0B8F95F
:1015700007B0F0BD0021022003E0A879207100210E
:10158000032000F0D5FAF3E7A670F1E7E670EFE785
:10159000287969790002081887B2002635E0069894
:1015A00081191F480818017A407A0902401880B250
:1015B000AC190390A0790090E0790290207A617ACA
:1015C0000002081880B204900098A41D019000F059
:1015D000D3F8002107E0144A4B00D35C019A9342F0
:1015E00003D0491CC9B28142F5D30F4849000818FD
:1015F00041780298814204D1211D049A009800F09C
:1016000015F803983018001D86B2BE42C7D3AFE765
:10161000FFF7F8FEACE7A879E97900F033FAA7E71D
:10162000EF00002014000020BC1C0008F8B50F4695
:1016300000250126314C0300FFF7C8FE0B3D070CC7
:1016400017223D3D2B3F48513D001146384600F0E2
:1016500065F82FE00846114600F0F8F801462848E2
:101660000170022009E0A57025E00846114600F04F
:10167000EDF8244908700146032000F09BF838E09B
:101680000846114600F0E2F81F49087001460420A0
:10169000F3E70846114600F0DBF8606060681B491C
:1016A00008606168072000F0A7F8A070A078012802
:1016B00000D00020A070A078F8BD0846114600F0C8
:1016C000C7F8014612480160082010E0084611469C
:1016D00000F0BEF80F4908600146092007E00846FF
:1016E000114600F0B5F80C49086001460A2000F0E8
:1016F00083F80128B7D13546B5E700000C0000207B
:10170000440000204500002046000020400000204A
:10171000480000204C0000205000002010B500F0D0
:1017200095F80B4C607060780A4908700A48017897
:10173000012902D16278002101706178012000F056
:1017400039F8A070A078012800D0002010BD00005A
:101750000C0000202A0000202F000020034610B5B6
:101760000020024605E01C78521C2018C0B292B23C
:101770005B1C8A42F7D310BD0C2070470448816877
:10178000C068814201D001207047002070470000EE
:1017900014000020FEF7D4FDFFF7C7FBFFF726FB80
:1017A000FFF76AFB00F03CF90A20FEF7F9FC00F0B5
:1017B000E5F9F9E710B50F4A0C460146127800200A
:1017C000012A13D000F0FCF8012100F0F9F8002103
:1017D00000F0F6F8012100F0F3F8002C08D0012108
:1017E00000F0EEF80146072000F0A2F9012010BD3C
:1017F0000021F5E72400002010B5134A0C460146ED
:1018000012780020012A1CD000F0DAF8022100F042
:10181000D7F8002100F0D4F8042100F0D1F8210E0F
:1018200000F0CEF82102090E00F0CAF82104090EDA
:1018300000F0C6F8E1B200F0C3F80146072000F05E
:1018400077F9012010BD00002400002000787047C7
:1018500000B5FFF72DFE00BD01480078704700007D
:101860001800002010B50146044A0020107000F056
:10187000A7F8C1B2052000F05BF910BD17000020E9
:1018800030B5002808D0002906D0884202D98C182B
:10189000844212D2002305E0002030BDCD5CC55447
:1018A0005B1C9BB29342F9D330BD8B18203BDC7F8D
:1018B0008318203B521EDC7792B2002AF5D130BD4E
:1018C00000280AD00022054901E04A68521C4A60FB
:1018D0000278401C002AF8D14868704704000020B4
:1018E00010B5002421A0FFF7EBFF82B21FA1204614
:1018F00000F058F8C4B21FA0FFF7E2FF82B21DA1AA
:10190000204600F04FF8C4B21FA0FFF7D9FF82B203
:101910001DA1204600F046F8C4B21DA0FFF7D0FF7D
:1019200082B21BA1204600F03DF8C4B21AA0FFF716
:10193000C7FF82B218A1204600F034F8C4B215A047
:10194000FFF7BEFF82B213A1204600F02BF8C4B20D
:1019500013A0FFF7B5FF82B211A1204600F022F8D4
:10196000C1B2012000F0E4F810BD00007B2270221B
:101970003A2200004B64324A3633475049414F6C9B
:101980007331416B00000000222C2276223A2200A3
:10199000312E302E30000000222C226D223A000021
:1019A0007D00000070B50446044815460019801DEE
:1019B000FFF766FF601980B270BD00000E010020C5
:1019C000024A1218401C917180B270470E0100202B
:1019D00010B50B490B4B0A681B689A4202D9D41AFE
:1019E000172C0CD29A4201D2934208D0064B9A424D
:1019F00002D31A46173A0A601070521C0A6010BDD2
:101A00001C00002020000020EF00002010B504463C
:101A1000FFF7C8FC0148047010BD00000C00002056
:101A200010B50924E406002220212046FEF773FCAD
:101A30000120FEF7B5FB012220212046FEF76BFCBA
:101A40007D20C000FEF7ACFB012203490348FFF7ED
:101A50000FF900F005F810BD2800002068000020F4
:101A6000054904480860054908600549FF200870D9
:101A700070470000D80000201C000020200000203B
:101A80001800002070470000F8B50024264E274DAE
:101A900006E0FFF72FFA014628883154401C2880C1
:101AA00028881F2803D2FFF769FE0028F1D1288873
:101AB000072838D329E0315D552901D0641C07E09F
:101AC00032195178AA29F9D19178002902D0A41CA1
:101AD000A4B21AE0117953790902C91D59188FB2BD
:101AE000262F0CD8B84214DB781E81B21046FFF7BF
:101AF00035FEE719B9192039C97F884201D0E41CA5
:101B0000E6E72046FFF70CFDBCB22888001B07283B
:101B1000D1DA2888001B0204120C2A8003D0311964
:101B20000148FFF7ADFEF8BDEF00002004000020E3
:101B300070B5114D55222A70AA226A700322AA702C
:101B4000E870080A28716971C91D8CB2601E81B2E3
:101B50002846FFF703FE29192039C877002C09D041
:101B600003E02878FFF752FF6D1C2046641EA4B2E4
:101B70000028F6D170BD00000E010020F8B5FFF777
:101B800083FFFFF769FE424C012260702146414805
:101B9000FFF76EF8A08900251E2802D36581A58174
:101BA00001E0401CA081E0899627012628281ED349
:101BB0002820E081208A01280CD16681E782608A92
:101BC0001E2809D0608A401C608209200221C006BC
:101BD000FEF79DFBE5810DE025826582E581E582CA
:101BE000092001220221C006FEF795FBEDE7E089FE
:101BF000401CE08180212848FEF784FB00280FD09C
:101C00006581A58210212548FEF77CFB012824D0A0
:101C1000092000220121C006FEF77DFB6671F8BD98
:101C2000A1780120FFF7C6FDA581608901280CD1AC
:101C3000E08A962806D3E7820020FFF713FE26826B
:101C4000658102E0E08A401CE082A08A0028D9D1A8
:101C50006089401C6081A682D4E7A670A17801202B
:101C6000FFF7A8FDE6710E480068002800D13C206F
:101C7000A061A0790F2806D309200121C006FEF734
:101C800046FBA571F8BDA079401CA071F8BD00000D
:101C900028000020680000200014004800040048CC
:101CA00010000020000000000000000001020304FA
:101CB00006070809000000000102030401010201F7
:101CC000030104010702080209020A026502660212
:101CD00067026802F41C0008000000206800000091
:101CE000E61300085C1D000868000020C80400001E
:101CF000F613000800127A00000000000000000047
:101D000000000000000000000000000000000000D3
:101D100000000000000000000000000000000000C3
:101D200000000000000000000000000000000000B3
:101D300000000000000000000000000000000000A3
:101D40000000000000000000000000000000000093
:0C1D500000000000000000000000000087
:04000005080000B53A
:00000001FF
